:100000000C94B2020C94CF020C94CF020C94CF0249
:100010000C94CF020C94CF020C94CF020C94CF021C
:100020000C94CF020C94CF020C94CF020C94ED05EB
:100030000C94CF020C94CF020C94FF050C94CF02C9
:100040000C94CF020C94CF020C94CF020C94CF02EC
:100050000C94CF020C94CF020C94CF020C94CF02DC
:100060000C94CF020C94CF0200000000007CDAF266
:10007000DA7C7CD6F2D67C387C3E7C38183C7E3CE0
:100080001838EABEEA38387AFE7A3800183C180088
:10009000FFE7C3E7FF0018241800FFE7DBE7FF0CCA
:1000A000125C607064949E946402FEA0A0E002FE64
:1000B000A0A4FC5A3CE73C5AFE7C38381010383873
:1000C0007CFE2844FE4428FAFA00FAFA6090FE808A
:1000D000FE006691A95606060606062945FF452933
:1000E00010207E201008047E0408101054381010D0
:1000F00038541010780808080830783078300C1C14
:100100007C1C0C60707C706000000000000000FA35
:10011000000000E000E00028FE28FE282454FE54E1
:1001200048C4C81026466C926A040A0010E0C00059
:10013000003844820000824438005438FE3854109D
:10014000107C101000010E0C001010101010000098
:1001500006060004081020407C8A92A27C0042FE21
:1001600002004E92929262848292B2CC182848FE8B
:1001700008E4A2A2A29C3C5292928C82848890E0D5
:100180006C9292926C629292947800002800000027
:10019000022C0000001028448228282828280082E9
:1001A00044281040809A90607C82BA9A723E4888B7
:1001B000483EFE9292926C7C82828244FE828282CF
:1001C0007CFE92929282FE909090807C82828ACE77
:1001D000FE101010FE0082FE8200040282FC80FEEF
:1001E00010284482FE02020202FE403840FEFE2039
:1001F0001008FE7C8282827CFE909090607C828AD5
:10020000847AFE90989462649292924CC080FE80B0
:10021000C0FC020202FCF8040204F8FC021C02FC0E
:10022000C6281028C6C0201E20C0869A92B2C200DE
:10023000FE828282402010080400828282FE2040DA
:10024000804020020202020200C0E01000042A2ABC
:100250001E02FE1422221C1C222222141C22221402
:10026000FE1C2A2A2A1800107E9040182525391EC7
:10027000FE1020201E0022BE0200040202BC00FE6E
:10028000081422000082FE02003E201E201E3E10A6
:1002900020201E1C2222221C3F182424181824244B
:1002A000183F3E10202010122A2A2A242020FC2247
:1002B000243C0202043E38040204383C020C023C96
:1002C0002214081422320909093E22262A32220069
:1002D000106C82000000EE000000826C1000408074
:1002E0004020403C64C4643C78858586485C0202BA
:1002F000045E1C2A2AAA9A84AAAA9E82842A2A1EFA
:100300008284AA2A1E02042AAA9E0230784A4E48F3
:100310009CAAAAAA9A9C2A2A2A9A9CAA2A2A1A0041
:1003200000A23E820040A2BE420080A23E020F9484
:1003300024940F0F14A4140F3E2AAAA200042A2A00
:100340003E2A3E5090FE924C9292924C4C121212C7
:100350004C4C5212120C5C8282845E5C4202041E7F
:1003600000B90505BE9C2222229CBC020202BC3CB4
:1003700024FF2424127E92C266D4F43FF4D4FF906A
:10038000946F0403117E90C0042A2A9E82000022EA
:10039000BE820C1212524C1C0202445E005E50508F
:1003A0004EBEB0988CBE649494F414649494946497
:1003B0000C12B202041C10101010101010101CF4BB
:1003C0000813355DF408142C5F0000DE00001028CF
:1003D00054284444285428105500AA005555AA55BD
:1003E000AA55AA55AA55AA000000FF00080808FF50
:1003F00000282828FF000808FF00FF08080F080F42
:100400002828283F002828EF00FF0000FF00FF28D1
:10041000282F203F2828E808F80808F808F8282896
:1004200028F8000808080F00000000F8080808086D
:10043000F8080808080F08000000FF080808080866
:1004400008080808FF08000000FF280000FF00FF60
:100450000000F808E800003F202F2828E808E828D6
:10046000282F202F0000FF00EF28282828282828E0
:10047000EF00EF282828E8280808F808F828282896
:100480002F2808080F080F0000F808F8000000F8EF
:10049000280000003F2800000F080F0808FF08FF91
:1004A000282828FF28080808F8000000000F08FF87
:1004B000FFFFFFFF0F0F0F0F0FFFFFFF00000000F8
:1004C00000FFFFF0F0F0F0F01C22221C223E5454FA
:1004D0007C287E40406060407E407E40C6AA92827A
:1004E000C61C22223C20027E04780460407E4040EC
:1004F00099A5E7A5993854925438324E804E320C63
:1005000052B2B20C0C121E120C3D465A62BC7C92C6
:100510009292007E8080807E54545454542222FA59
:100520002222028A5222020222528A020000FF8004
:10053000C00701FF00001010D6D6106C486C246C68
:1005400060F090F060000018180000000808000C2F
:1005500002FF808000F88080780098B8E848003C6E
:100560003C3C3C0011241FBECFEFD8E0DEBFCDBF26
:1005700015E0A0E0B1E0E6EBF2E202C005900D92DA
:10058000A43AB107D9F725E0A4EAB5E001C01D926D
:10059000A13DB207E1F70E944B0A0C9459110C944B
:1005A00000005C9827E030E090E05D98AC01022EFE
:1005B00002C0559547950A94E2F740FF02C05E9A43
:1005C00001C05E985D9A2150310978F70895569AD6
:1005D000559A549A539A529A5A985B982FE986E8FA
:1005E00091E0215080409040E1F700C000005B9A0C
:1005F00083EA0E94D10280EA0E94D10280EC0E942C
:10060000D10280E40E94D1028CE20E94D10283EDEB
:1006100090E30197F1F700C000008EE20E94D10242
:1006200083ED90E30197F1F700C000008FE20E9494
:10063000D10283EC99E00197F1F700C0000086E257
:100640000E94D10208955C9A27E030E090E05D9826
:10065000AC01022E02C0559547950A94E2F740FF7F
:1006600002C05E9A01C05E985D9A2150310978F708
:100670000895CF93C82F81E80E94D1028C2F8F73E9
:100680000E94D102CF910895CF92DF92EF92FF9214
:100690000F931F93CF93DF930F2EF4E0EF2EF5E02F
:1006A000FF2EF02DEC010F2EF4E1CF2EF5E0DF2E22
:1006B000F02DF7018081F2E0EF0EF11C806B0E94BB
:1006C000D10280E00E94D10280E10E94D10280EE3E
:1006D0000E94D1028FEF0E9423038E0100581F4F0A
:1006E00089910E942303C017D107D1F7E801CE14E6
:1006F000DF04F9F6DF91CF911F910F91FF90EF90FA
:10070000DF90CF90089520E034E0FC01A901119220
:1007100041505040E1F7089530E0F901EE0FFF1F1E
:10072000EE0FFF1FE20FF31FE859FF4F55E0560F82
:100730009C0170E8479F200D311D11249491D9012F
:10074000A60FB11D9C936F5F31966513F7CF089587
:10075000242F269526952695E62FF0E030E8239F56
:10076000E00DF11D1124E80FF91F50E04095509560
:100770004770552781E090E002C0880F991F4A9585
:10078000E2F79081892B80830895242F2695269562
:100790002695E62FF0E030E8239FE00DF11D1124AF
:1007A000E80FF91F50E0409550954770552781E0BC
:1007B00090E002C0880F991F4A95E2F780959081DA
:1007C000892380830895AF92BF92DF92EF921F93A7
:1007D000CF93DF935C01D42EE901162FE12C0BC0DF
:1007E000FE01E80FF91F20814D2D612FC5010E94E8
:1007F0008C03E3941A5F8E2D90E0FE01019000209F
:10080000E9F73197EC1BFD0B8E179F0748F3DF913B
:10081000CF911F91EF90DF90BF90AF9008952F92EE
:100820003F924F925F926F927F928F929F92AF9280
:10083000BF92CF92DF92EF92FF920F931F93CF93CD
:10084000DF93CDB7DEB72A970FB6F894DEBF0FBEA1
:10085000CDBF9E838D832F830887EC82062F10E007
:10086000E42EF12C30E0201B310B190122F422245C
:100870003324221A330A5885852F90E08E199F0958
:100880009B838A83992334F4EE27FF27E81BF90B17
:10089000FB83EA8333234CF071E050E01216130619
:1008A0000CF070E0A72EB52E03C0AA24AA94BA2C8F
:1008B00099234CF031E020E0181619060CF030E0D6
:1008C000832E922E03C088248A94982C8D819E8139
:1008D0000E94A8032A813B81221633064CF4922DF4
:1008E000832D19019A838B83CC24C394D12C02C00D
:1008F000C12CD12C8A819B81880F991F9B838A836D
:10090000821993099A878987121413040CF04EC038
:100910003101660C771C412C512C91E09983EC81BC
:10092000EE23A1F0F981FF5FF983F33050F04E2DF3
:10093000602F8D819E810E94A8032981263008F0B6
:10094000198289859A85992344F419C04E2D602F08
:100950008D819E810E94A803F4CFE985FA85E6196E
:10096000F709FA87E987C114D10419F00A0D1B1D94
:1009700002C0E80CF91C29853A85332374F7898570
:100980009A85EA81FB818E0F9F1F9A878987C11400
:10099000D10419F0E80CF91C02C00A0D1B1DFFEF71
:1009A0004F1A5F0A2414350409F0B9CF48856F81C6
:1009B0008D819E810E94A8032A960FB6F894DEBF0F
:1009C0000FBECDBFDF91CF911F910F91FF90EF90A0
:1009D000DF90CF90BF90AF909F908F907F906F905F
:1009E0005F904F903F902F900895CF92DF92EF92BB
:1009F000FF920F931F93CF93DF93222391F0F42E56
:100A0000C62F6C01D22FD60F142F100FE12C012FFF
:100A10002C2F4F2D6C2FC6010E940F04CF5FCD13DA
:100A2000F5CFDF91CF911F910F91FF90EF90DF9065
:100A3000CF900895CF92DF92EF92FF920F931F9382
:100A4000CF93DF936C01162FF42EC02FD62FD20F29
:100A5000E12C042F2D2F0E940F04CF0D0C2F2D2FD2
:100A60004F2D6D2FC6010E940F04212F4C2F6D2F8B
:100A7000C6010E940F040F2D212F4C2F612FC6019C
:100A80000E940F04DF91CF911F910F91FF90EF9083
:100A9000DF90CF900895CF92DF92EF92FF920F9365
:100AA0001F93CF93DF93C82FD62F142FF22EC82E6B
:100AB000C41A462F420FD82ED10EE12C042F2C2D14
:100AC0006D2D84E091E00E940F044D2F4F19042FEB
:100AD0002C2D6D2D84E091E00E940F04DC2EDF1898
:100AE0004D2F410FCF0D042F2D2D6C2F84E091E061
:100AF0000E940F044D2F411B042F2D2D6C2F84E0DD
:100B000091E00E940F04DF91CF911F910F91FF9010
:100B1000EF90DF90CF9008958F929F92AF92BF9207
:100B2000CF92DF92EF92FF920F931F93CF93DF93B9
:100B3000C22FD0E09E01220F331F83E090E04C01D2
:100B4000821A930AA42EB12CC62ED12C9E0140E00D
:100B500050E0B501C6010E944B056894EE24E2F80E
:100B6000F12C00E010E00F5F1F4F9E01A801B501BE
:100B7000C6010E944B05181419047CF42197C80182
:100B80008C1B9D0B880F991F880F991F880D991D2D
:100B90004C012AE0820E911C0DC0C701880D991DE1
:100BA0004C0126E0820E911C83ED90E30197F1F752
:100BB00000C0000094E0E90EF11CC017D1079CF6BC
:100BC000DF91CF911F910F91FF90EF90DF90CF9029
:100BD000BF90AF909F908F9008951F920F920FB685
:100BE0000F9211248F939F9395B184E0892785B943
:100BF0009F918F910F900FBE0F901F9018951F928D
:100C00000F920FB60F9211248F939F93EF93FF9340
:100C100095B188E0892785B98091A4058F5F80937D
:100C2000A405843158F01092C4051092C3051092A7
:100C3000A405EEE6F0E080818D7F8083FF91EF9147
:100C40009F918F910F900FBE0F901F90189580E489
:100C500080937C0087E880937A000895ECE7F0E0C9
:100C60009081987F8770892B8083EAE7F0E080810C
:100C700080648083808186FDFDCF80917800909193
:100C800079000895813021F4E1ECF5E010821182C1
:100C9000EEE1F5E082E09EE0918380838BE79EE0C9
:100CA000938382838FEF9FEF958384832FEB3FE0C5
:100CB0003783268391878087E9EBF5E011821082E4
:100CC000138212820895942F9F778917B0F0922F84
:100CD0009F779817A8F0440F452F441F550B519547
:100CE000641788F0220F232F221F330B319581E0E8
:100CF00090E0261750F480E0089580E090E0089599
:100D000080E090E0089580E090E008950F931092C5
:100D1000C60581E00E94420684E091E00E948303C0
:100D20002BE235E041E064E284E091E00E94E303DD
:100D300025E335E043E065E184E091E00E94E303D0
:100D400026E435E045E065E184E091E00E94E303BC
:100D500025E535E047E065E184E091E00E94E303AA
:100D600022E04BE16FE084E091E00E948C0522E0FC
:100D70004BE26FE084E091E00E948C0522E04BE3BF
:100D80006FE084E091E00E948C0509E022E647E1F3
:100D900063E184E091E00E941A0526E547E263E101
:100DA00084E091E00E941A0508E022E347E363E152
:100DB00084E091E00E941A0584E091E00E944403DF
:100DC0000F9108950F93CF93DF938FEF8093C60514
:100DD000D9E20CC04C2F6D2F84E091E00E94C50336
:100DE000CF5FC133B9F7DF5FD63511F0C6E1F2CF7F
:100DF0000BE12CE246E169E284E091E00E941A05F1
:100E00002EE535E043E06DE284E091E00E94E303EB
:100E100025E635E044E06DE284E091E00E94E303E2
:100E20002CE635E045E06DE284E091E00E94E303CA
:100E300007E028E240E26BE284E091E00E941A05BC
:100E400028E247E26BE284E091E00E941A0584E028
:100E500091E00E944403DF91CF910F9108950F9389
:100E6000CF93DF93EEE6F0E080818D7F80838FE18A
:100E70008093C605D3E20CC04C2F6D2F84E091E027
:100E80000E94C503CF5FC333B9F7DF5FDB3511F0D5
:100E9000CEE0F2CF8091C1058A3048F021E735E0FD
:100EA00043E06FE484E091E00E94E30308C023E79D
:100EB00035E043E06FE484E091E00E94E3032FE338
:100EC00035E043E068E284E091E00E94E30325E737
:100ED00035E042E067E284E091E00E94E3032EE720
:100EE00035E044E064E384E091E00E94E30320E81D
:100EF00035E044E06AE384E091E00E94E30322E805
:100F000035E044E060E484E091E00E94E30324E8FB
:100F100035E044E066E484E091E00E94E3032CE6DF
:100F200035E045E063E384E091E00E94E30304E2FE
:100F300027E34EE063E284E091E00E941A0508E0B6
:100F40002CE148E261E384E091E00E941A0587EA1F
:100F500091E60197F1F700C0000084E091E00E9463
:100F6000440387EA91E60197F1F700C00000DF91A2
:100F7000CF910F910895EF920F93CF93DF9384E079
:100F800091E00E9483030FE32EE740E060E084E0FD
:100F900091E00E941A05C1ECD5E0E881F0E0EC5E3A
:100FA000FA4F208140E069E384E091E00E948C03E5
:100FB000E981F0E0EC5EFA4F208140E062E484E0F9
:100FC00091E00E948C03CEE1D5E06E817F81AB0180
:100FD000440F452F441F550B51956F77772723E01A
:100FE00084E091E00E948C05EE24E39407E32FE374
:100FF00040E06FE384E091E00E940F0408E028E005
:1010000047E36CE384E091E00E941A05E12C0DE3D4
:101010002EE34AE36EE384E091E00E940F042FE3A5
:101020004AE36FE384E091E00E940F0421E44AE385
:1010300061E484E091E00E940F0422E44AE362E468
:1010400084E091E00E940F0468817981AB01440F34
:10105000452F441F550B51956F7709E022E084E03E
:1010600091E00E94F5046A817B81AB01440F452F1A
:10107000441F550B51956F7722E084E091E00E9468
:10108000F50483EC99E00197F1F700C0000084E0DB
:1010900091E00E944403DF91CF910F91EF9008956A
:1010A000AC01EEE6F0E09081926090839A015523C6
:1010B00024F422273327241B350BCB01992324F456
:1010C00088279927861B970B243031056CF42370F1
:1010D0003078332334F4215031092C6F3F6F2F5F68
:1010E0003F4F245031090CC023703078332334F43F
:1010F000215031092C6F3F6F2F5F3F4F2350310933
:101100008430910554F483709078992324F40197E6
:101110008C6F9F6F0196049709C083709078992314
:1011200024F401978C6F9F6F019603972115310569
:1011300011F421E030E0009711F482E090E0EEE15C
:10114000F5E0468157819695982F88279795879542
:10115000820F931F840F951F958384839C012F77A3
:101160003327BA016F777727261B370BE9EBF5E0BA
:1011700031832083880F892F881F990B9195440F05
:10118000452F441F550B5195841B950B93838283E8
:101190003583248308958F929F92AF92BF92CF920E
:1011A000DF92EF92FF92CF93DF932FED82E292E0F6
:1011B000215080409040E1F700C00000EEE1F5E0F2
:1011C0008681978191878087248135813783268323
:1011D000C901880F892F881F990B91956C01E12C0B
:1011E000F12CE091BB05F091BC05AF010F2E000C76
:1011F000660B770B46015701A3E08A1A9108A108F4
:10120000B108840E951EA61EB71E181419041A04E0
:101210001B0474F4A3E0CA0ED11CE11CF11C4C0D9C
:101220005D1D6E1D7F1D4F3351056105710554F025
:1012300043E04093C405F195E195F109F093BC05B5
:10124000E093BB05A9014F77552760E070E0E0917E
:10125000B905F091BA054F010F2E000CAA08BB0882
:101260006A017B01A3E0CA1AD108E108F108C80CA1
:10127000D91CEA1CFB1CA4E0CA16D104E104F10449
:101280000CF05AC0CEE1D5E048815981440F452F7A
:10129000441F550B5195A9EBB5E012962D913C9149
:1012A0001397280F391F3695322F22273795279508
:1012B0002B5F3F4F3D832C83222733272E1B3F0B71
:1012C0002D933C939A0133278217930708F1475FC8
:1012D00050E048175907E0F041E04093C405821BF5
:1012E000930B8430910509F49DC08430910534F44A
:1012F00004979093BC058093BB0594C089309105F9
:101300000CF090C004979093BC058093BB058AC0F5
:1013100082E08093C40581E080932A0580E00E94EA
:101320004206E1ECF5E081818F5F8183893008F42A
:1013300079C00E942F0776C04D5F5F4F6F4F7F4F80
:10134000480D591D6A1D7B1D4C37510561057105FE
:101350000CF457C0CEE1D5E04A815B81440F452FA4
:10136000441F550B5195A9EBB5E012962D913C9178
:101370001397280F391F3695322F22273795279537
:1013800027583F4F3D832C83222733272E1B3F0BAB
:101390002D933C939A01332782179307F8F0475F08
:1013A00050E048175907D0F0821B930B21E020939F
:1013B000C40584309105B1F18430910534F404976B
:1013C0009093BC058093BB052DC08930910554F5E1
:1013D00004979093BC058093BB0524C082E0809362
:1013E000C40581E080932A0580E00E944206E1EC7A
:1013F000F5E080818F5F80838930A0F00E942F0705
:1014000011C08091BB059091BC059695982F8827B7
:10141000979587952E0F3F1F280F391F309323056F
:1014200020932205DF91CF91FF90EF90DF90CF9036
:10143000BF90AF909F908F9008950F931F93CF937D
:10144000DF93C5EAD5E009EB15E084E00E942E06A3
:1014500089939993C017D107C1F7DF91CF911F915D
:101460000F91089584E00E942E06E7EBF5E065EA0F
:1014700075E040E050E03291229133832283420FA5
:10148000531FE617F707B9F79093A6058093A505B4
:10149000840F951F0895CF93DF931F92CDB7DEB7CA
:1014A0000E948D0D0E942706579A5F988BB18BB9C9
:1014B00084B1856084B985B18A7F85B985B185B9E4
:1014C000259A2D98239A17B818B814BC15BC84B562
:1014D00084BD85B5856085BDE1E8F0E0108280813E
:1014E0008D6080838FEF9FE09093890080938800C8
:1014F0007894B19A0E941D0A0E94E7028FEA0E9426
:10150000D10288E10E94390384E091E00E94440303
:101510002FEF4EE984E2215040408040E1F700C0C7
:10152000000084E091E00E9483030E9486060F2E53
:10153000FFE6AF2EB12CF02D0F2EF6E8CF2EF5E002
:10154000DF2EF02D772473946894222426F8312C12
:1015500029C00F2EFDE2EF2EF12CF02D23C00F2E0F
:10156000FDE2EF2EF12CF02D1DC00F2EFDE2EF2E2F
:10157000F12CF02D17C00F2EFDE2EF2EF12CF02DE7
:1015800011C00F2EFDE2EF2EF12CF02D0BC00F2E0F
:10159000FDE2EF2EF12CF02D05C00F2EFDE2EF2E17
:1015A000F12CF02D8091C6058F3131F0F50180814D
:1015B0008D7F808385B115B88091C3051F928F936D
:1015C0008091C4051F928F93DF92CF9287EC95E0B4
:1015D0009F938F930E941B0E87EC95E00E94A10DB4
:1015E0000FB6F894DEBF0FBECDBF8091C305811149
:1015F00010C08091C405882361F07092C305EEE6A7
:10160000F0E0808182608083A99A7092C40583E0B3
:1016100087BD82E087B978B883EC99E00197F1F74C
:1016200000C0000030995AC02D9A8AE087B988E03E
:1016300088B9E3ECF9E03197F1F700C0000080E0F1
:101640000E942E068C018935F3E09F0730F48A341E
:10165000914028F40AE411E002C001E613E085E0BD
:1016600087B978B883EC99E00197F1F700C00000E2
:1016700083E00E942E068738910538F08E34E3E02F
:101680009E0728F08DE493E002C087E890E0875839
:1016900090489C01220F331FAFE2BAEB0E94B00DBD
:1016A0007C01F694E794F694E794F694E794980115
:1016B0002A54314C220F331F220F331FAFE3B8EFF0
:1016C0000E94B00D96958795929582958F70892787
:1016D0009F7089278101081B190B01C02D980E945A
:1016E0000B0E87709078992324F40197886F9F6F71
:1016F0000196882E992E0E940B0E87709078992360
:1017000024F40197886F9F6F0196582E692E80915F
:10171000C60581113DC0098325E730E143E95BE05F
:10172000602F8E2D0E946306892B49F07092C605AA
:10173000652D762D882D992D0E94500833CF29E6EE
:1017400038E142E150E1602F8E2D0E946306892B23
:1017500051F08BE08093C605652D762D882D992D4F
:101760000E9450081FCF25EC3FE143E95BE169810E
:101770008E2D0E946306892B09F414CF85E1809396
:10178000C605652D762D882D992D0E9450080ACF0B
:10179000813029F08B3019F0853109F03EC10E946B
:1017A000BB0780912A05813049F4652D762D882D5F
:1017B000992D0E94500810922A0502C00E94CB0861
:1017C0008091C605853109F049C00E94320A8C33E8
:1017D000FAE09F0718F185362FE0920710F084E6B3
:1017E0009FE0AC014C535A409A01A9E1B6E80E942F
:1017F000B00D481B590B56954795840F951F929530
:1018000082958F7089279F7089278630910548F0CF
:101810008A33910540F089E390E005C086E090E0CE
:1018200002C086E090E0EEE1F5E020813181A9017F
:10183000440F452F441F550B51958417950728F4E5
:10184000205831403183208309C04817590730F4AC
:1018500020583E4FEEE1F5E031832083802E6E2C40
:1018600024EC3FE14CEB5BE1602F8E2D0E94630680
:10187000892B31F08091C6058093C5050E94E20650
:101880009090C605F1E09F1609F417C12BE0921263
:1018900089CE17C10F2EF5E04F2EF02D512C8091DF
:1018A000240590912505880F892F881F990B919504
:1018B00040912005509121059A01220F232F221FCC
:1018C000330B31952B5F3F4FBC0163507109621799
:1018D000730758F4411582E05807A8F0405851406A
:1018E00050932105409320050EC003962817390711
:1018F00050F441159CE1590730F440585E4F509325
:1019000021054093200528EA3FE140E050E0682DA2
:10191000862D0E946306892BF1F105C00F2EF5E09C
:101920004F2EF02D512CEEE1F5E020813181C901DF
:10193000880F892F881F990B91950596A201435016
:1019400051094817590778F42F3F310509F008F479
:1019500000CE20583140318320830F2EFDE2EF2E40
:10196000F12CF02D1FCEF3E04F0E511C8415950580
:1019700008F0F5CD20384BE1340708F0F6CD2058BB
:101980003E4FEEE1F5E0318320830F2EFDE2EF2E96
:10199000F12CF02D07CEF1E09F1204CE2FEF3FE1A6
:1019A00047E550E0682D862D0E946306892B09F4D7
:1019B000E2CD2091200530912105C901880F892FA2
:1019C000881F990B919505964816590688F421159C
:1019D00042E0340708F4D5CD20583140309321053A
:1019E000209320050F2EFDE2EF2EF12CF02DDACD05
:1019F0008415950508F0CBCD21158CE1380708F04A
:101A0000CCCD20583E4F30932105209320050F2E3A
:101A1000FDE2EF2EF12CF02DC5CD8F3F61F523E5D2
:101A200033E14BE250E1602F8E2D0E946306892B3B
:101A300039F08091C5058093C6050E94BB07B2CDE1
:101A400023E539E14BEA53E1602F8E2D0E946306B6
:101A5000892B09F4A7CD0E9486069FE3EDE0F3E011
:101A60009150E040F040E1F700C0000000E010E0DD
:101A7000E12CF12C97CD8F3109F094CDF5018081C7
:101A8000826080832DE438E141E354E1602F8E2DA4
:101A90000E946306892B09F485CD0E948606FFE328
:101AA0002DE043E0F15020404040E1F700C000004D
:101AB00000E010E0E12CF12C75CD0530110530F47B
:101AC0001BC00530110508F4E5CE0BC028010B330F
:101AD000110508F418CF0F2EFAE34F2E512CF02DDC
:101AE00012CF28010B33110508F4D9CE0F2EFAE3DB
:101AF0004F2E512CF02DD3CE28EA3FE140E050E0AC
:101B0000682D862D0E946306892B09F007CF0F2EC2
:101B1000F5E04F2EF02D512C41CF1092C50087E6F5
:101B20008093C40088E18093C1008EE08093C2005E
:101B30000895E0ECF0E0908195FFFDCF8093C60022
:101B40000895CF93DF93EC018881882331F02196AB
:101B50000E94990D89918111FBCFDF91CF9108955A
:101B6000A29FB001B39FC001A39F700D811D1124DE
:101B7000911DB29F700D811D1124911D08958F92AA
:101B80009F92AF92BF92CF92DF92EF92FF92CF934C
:101B9000DF93EC01688179818A819B8161157105F0
:101BA0008105910521F464E279ED8BE597E02DE163
:101BB00033EF41E050E00E94CE1049015A019B01F1
:101BC000AC01A7EAB1E40E94ED106B017C01ACEE20
:101BD000B4EFA50194010E94FB10DC01CB018C0D38
:101BE0009D1DAE1DBF1DB7FF03C00197A109B048E1
:101BF00088839983AA83BB839F77DF91CF91FF90DE
:101C0000EF90DF90CF90BF90AF909F908F9008950E
:101C10000E94BF0D089580E091E00E94BF0D0895DD
:101C2000A0E0B0E08093000190930101A093020135
:101C3000B09303010895AEE0B0E0E1E2FEE00C9461
:101C40000E110D891E8986E08C831A8309838FEF1C
:101C50009FE79E838D83AE01475E5F4F6F89788DCE
:101C6000CE0101960E943D0EEF81F885E00FF11F35
:101C700010822E96E4E00C942A11ABE0B0E0E3E48D
:101C8000FEE00C9400116C017B018A01FC011782BB
:101C90001682838181FFCCC1CE0101963C01F60101
:101CA0009381F70193FD859193FF81917F018823B3
:101CB00009F4BAC1853239F493FD859193FF81917E
:101CC0007F01853229F4B60190E00E943410E7CFFD
:101CD000912C212C312CFFE1F315D8F08B3279F0C7
:101CE00038F4803279F08332A1F4232D20611DC0B5
:101CF0008D3261F0803369F4232D216016C0832D6D
:101D00008260382EE32DE4603E2E2AC0F32DF86069
:101D10001DC037FC2DC020ED280F2A3040F08E3238
:101D2000B9F436FC81C1232D2064322E19C036FE51
:101D300006C08AE0989E200D1124922E11C0EAE080
:101D40002E9E200D1124222EF32DF0623F2E08C06E
:101D50008C3621F4832D8068382E02C0883641F4F9
:101D6000F70193FD859193FF81917F018111B3CF9D
:101D7000982F9F7D9554933028F40C5F1F4F9FE35D
:101D800099830DC0833631F0833771F0833509F0C4
:101D900059C021C0F801808189830E5F1F4F8824BC
:101DA0008394912C530113C02801F2E04F0E511C73
:101DB000F801A080B18036FE03C0692D70E002C03A
:101DC0006FEF7FEFC5010E9429104C018201F32DB6
:101DD000FF773F2E16C0280122E0420E511CF80169
:101DE000A080B18036FE03C0692D70E002C06FEFA5
:101DF0007FEFC5010E941E104C01F32DF0683F2EAD
:101E0000820133FC1BC0822D90E088169906B0F445
:101E1000B60180E290E00E9434102A94F4CFF501DC
:101E200037FC859137FE81915F01B60190E00E94F9
:101E3000341021102A9421E0821A9108811491040F
:101E400071F7E8C0843611F0893641F5F80137FEA4
:101E500007C060817181828193810C5F1F4F08C030
:101E600060817181072E000C880B990B0E5F1F4F4C
:101E7000F32DFF763F2E97FF09C0909580957095C2
:101E800061957F4F8F4F9F4FF0683F2E2AE030E0E3
:101E9000A3010E947010882E861845C0853731F442
:101EA000232D2F7EB22E2AE030E025C0932D997F7E
:101EB000B92E8F36C1F018F4883579F0B5C0803767
:101EC00019F0883721F0B0C0E92FE061BE2EB4FED2
:101ED0000DC0FB2DF460BF2E09C034FE0AC0292FAF
:101EE0002660B22E06C028E030E005C020E130E0D8
:101EF00002C020E132E0F801B7FE07C060817181C5
:101F0000828193810C5F1F4F06C06081718180E0E8
:101F100090E00E5F1F4FA3010E947010882E86185C
:101F2000FB2DFF773F2E36FE0DC0232D2E7FA22ED8
:101F3000891458F434FE0BC032FC09C0832D8E7E08
:101F4000A82E05C0B82CA32C03C0B82C01C0B92CF6
:101F5000A4FE0FC0FE01E80DF11D8081803321F445
:101F60009A2D997EA92E09C0A2FE06C0B394B394FF
:101F700004C08A2D867809F0B394A3FC11C0A0FE9A
:101F800006C0B21488F4280C922C9B180EC0B21410
:101F900060F4B60180E290E00E943410B394F7CF71
:101FA000B21418F42B1802C0982C212CA4FE10C0D7
:101FB000B60180E390E00E943410A2FE17C0A1FC9D
:101FC00003C088E790E002C088E590E0B6010CC04D
:101FD0008A2D867859F0A1FE02C08BE201C080E212
:101FE000A7FC8DE2B60190E00E943410891438F409
:101FF000B60180E390E00E9434109A94F7CF8A945F
:10200000F301E80DF11D8081B60190E00E943410CB
:102010008110F5CF222009F442CEB60180E290E093
:102020000E9434102A94F6CFF6018681978102C06F
:102030008FEF9FEF2B96E2E10C941C11FC010590B1
:10204000615070400110D8F7809590958E0F9F1FBA
:102050000895FC016150704001900110D8F78095FF
:1020600090958E0F9F1F08950F931F93CF93DF932B
:10207000FB01238121FD03C08FEF9FEF2CC022FFC6
:1020800016C046815781248135814217530744F495
:10209000A081B1819D012F5F3F4F318320838C93BD
:1020A000268137812F5F3F4F3783268314C08B01F2
:1020B000EC01FB010084F185E02D0995892BE1F607
:1020C000D80116968D919C911797019617969C931F
:1020D0008E931697CE01DF91CF911F910F910895A6
:1020E000FA01AA27283051F1203181F1E8946F9349
:1020F0006E7F6E5F7F4F8F4F9F4FAF4FB1E03ED0EF
:10210000B4E03CD0670F781F891F9A1FA11D680F8C
:10211000791F8A1F911DA11D6A0F711D811D911DBF
:10212000A11D20D009F468943F912AE0269F112434
:102130003019305D3193DEF6CF010895462F477098
:10214000405D4193B3E00FD0C9F7F6CF462F4F70F3
:10215000405D4A3318F0495D31FD4052419302D051
:10216000A9F7EACFB4E0A6959795879577956795F7
:10217000BA95C9F700976105710508959B01AC01F7
:102180000A2E06945795479537952795BA95C9F71E
:10219000620F731F841F951FA01D0895052E97FBC6
:1021A0001EF400940E94E51057FD07D00E943711DD
:1021B00007FC03D04EF40C94E510509540953095F3
:1021C00021953F4F4F4F5F4F0895909580957095A3
:1021D00061957F4F8F4F9F4F08950E94B00DA59F2F
:1021E000900DB49F900DA49F800D911D1124089512
:1021F000B7FF0C94ED100E94ED10821B930B089515
:102200002F923F924F925F926F927F928F929F9206
:10221000AF92BF92CF92DF92EF92FF920F931F93F4
:10222000CF93DF93CDB7DEB7CA1BDB0B0FB6F894A5
:10223000DEBF0FBECDBF09942A88398848885F84E5
:102240006E847D848C849B84AA84B984C884DF8056
:10225000EE80FD800C811B81AA81B981CE0FD11D3A
:102260000FB6F894DEBF0FBECDBFED010895A1E219
:102270001A2EAA1BBB1BFD010DC0AA1FBB1FEE1F00
:10228000FF1FA217B307E407F50720F0A21BB30B4B
:10229000E40BF50B661F771F881F991F1A9469F7C7
:1022A00060957095809590959B01AC01BD01CF0123
:0622B0000895F894FFCF31
:1022B600010000007F7F7F7F717F717F7F7F7F7F3F
:1022C6007E7F7A7B7F7F7F7F7F7F7F7F7F717F7F30
:1022D600717F7F7F0000606060787F7F7F7F7F6097
:1022E6006060606060707078783E3F1F1F0F070166
:1022F60000000000000000000000000000000000D8
:1023060000000000000000000000000000000000C7
:1023160000000000000000000000000000000000B7
:1023260000000000000000000000000000000000A7
:1023360000000000FFFFF0F0F0F0F0F0F0F0F0F039
:10234600F1F3F7FFFFFFF7F1F0F0F0F0F0F0F0F047
:10235600F0F0F0FF000000000000FFFFFFFFFF00AD
:102366000000000000000000000083FFFFFFFFFFE9
:102376003C00010103030303030301010000000005
:102386000101010103030303030000010103030329
:102396000303030100000000000001010103030321
:1023A600030300000001010303030303010100000E
:1023B60000000000E0FF03000103070F1E3E7FFF41
:1023C600FFFF9F0F0F8FFFFFFF7F3E1E0F070301CB
:1023D60000013FFC000000000000FFFFFFFFFF1CA4
:1023E6001C1C1C1C1C1C1C3C78F8F8F8F1EFDFFFC9
:1023F6007FFFE1C18181818181C1E1F9FFFF7F1FFB
:10240600878080C0FFFFFFFFFF78F0E0C0C0C0C03C
:10241600C0E0FFFFFFFF3F070000808080FFFFFF57
:10242600FFFF3C78F0E0C0C0C0C0E0F0FFFFFF7FD8
:102436001F0000000080E0F8FCFFFF3F1F1E3CF875
:10244600F0E0C08000C0E0F0F83C1E1F3FFFFFFC3C
:10245600F8E08000000000000000FFFFFFFFFF0023
:10246600000000000000000000000000FEFFFFFF6B
:10247600FFBF818080808080808080808080808097
:1024860080000000FFFFFFFFFF00000000000000CB
:102496000000FFFFFFFFFFFF0000000000FFFFFF3F
:1024A600FFFF00000000000000000000FFFFFFFF2C
:1024B600FF00000000000000000080C0E07030183F
:1024C6000C0C0606060C0C18183060E0C0800000E4
:1024D600000000000000060E0E3EFEFEFEFEFE7E22
:1024E6000E0E060000000000000000000080E0F074
:1024F600F8FCFC7E3E1E0E0E0E060E0E0E1C3878E6
:10250600E6060E1EFEFEFEFEFE0E0E06000000068F
:10251600060EFEFEFEFEFEFE0E0E06060EFEFEFE7D
:10252600FEFE7E0E0E06000000060E0EFEFEFEFEEF
:10253600FE1E0E0600000000000000000000000065
:102546000000000000000000000001010000000083
:102556000000000000000000000000000000000174
:102566000101000000000000010100000000000061
:102576000000000000000000010101000000000052
:102586000000010100000000000000000000000043
:102596000000000000000000000000000000000035
:1025A6000000000000000000000000000000000025
:1025B600000000000000FFFFCECECECE001F1F1F82
:1025C60038381F1F1C383C1F0F00FFFF1C38381FF0
:1025D6001F07071F1F3B3B1F1F07071F1F3838FF1B
:1025E600FFFF000F1F38381CFFFF000F1F1F3B3B6C
:1025F6001F1F070F1F1F3838FFFFFF00000000785E
:10260600FCFCCECFC7C3181F1F03031F1F181E1FB6
:102616003F3B1B0118FFFF1818000F1F3B3B3B1FDA
:102626000F001F1F1C383C1F1F18383F1F07001FB5
:102636003F3B3B190000F0F07070707000F0F0F056
:102646000000F0F0000000F0F000F0F0F07070F024
:10265600E080C0E0F07030707000C0E0F07070E0B4
:10266600F0F000E0F0707070F0F000C0E0F0703054
:10267600707000C0E0F07070F0F0F00000000060D4
:1026860070703070F0E00000EEFEFCE0000070704C
:1026960030F0F0E000E0F0707000E0F07030307084
:1026A6006000F0F0000000F0F00000F0F0F0607064
:1026B60030B0F0E003000200010000000700060051
:1026C6000500040030313233343536373839FFFFF0
:1026D600FFFFFFFFFFFFFFFF000001506C61792045
:1026E600506F6E6700506C6179657220767320506A
:1026F6006C6179657200506C617965722076732021
:10270600436F6D7000416363204D6F6465005041F7
:102716005553454400726573756D6500717569742E
:10272600004C005200436F6E67726174730057006D
:1027360049004E00530042757A7A6572202575204D
:1027460042757A7A657220546F67676C65202575C5
:04275600200A000055
:00000001FF
